S01700005265616C5F54696D655F436C6F636B2E7372656350
S11300000C94BA000C94D7000C94D7000C94D7002D
S11300100C94D7000C94F5030C94D7000C94D700DF
S11300200C94D7000C94D7000C94D7000C94D700F0
S11300300C94D7000C94D7000C94D7000C94D700E0
S11300400C94D7000C94D7000C94D7000C94D700D0
S11300500C94D7000E01270140015901710171016F
S113006071017101710171017101710171017101FC
S113007071017101710171017101710171017101EC
S113008071017101710171017101710171017101DC
S1130090710171010E012701400159017E01900196
S11300A0A201B401C601C601C601C601C601C6014A
S11300B0C601C601C601C601C601C601C601C60104
S11300C0C601C601C601C601C601C601C601C601F4
S11300D0C601C601C601C601C601C6017E01900162
S11300E0A201B401D301DA01E101E801EE01EE015C
S11300F0EE01EE01EE01EE01EE01EE01EE01EE0184
S1130100EE01EE01EE01EE01EE01EE01EE01EE0173
S1130110EE01EE01EE01EE01EE01EE01EE01EE0163
S1130120EE01EE01D301DA01E101E801FA01FC017B
S1130130FE010002010201020102010201020102A8
S11301400102010201020102010201020102010293
S11301500102010201020102010201020102010283
S1130160010201020102010201020102FA01FC0181
S1130170FE01000211241FBECFE5D8E0DEBFCDBFD3
S113018010E0A0E6B0E0E6E4F8E002C005900D92CD
S1130190AA36B107D9F720E0AAE6B0E001C01D9263
S11301A0AD36B207E1F70E9402020C9421040C94CC
S11301B0000061E00E94C8010895CF93DF93CDB79A
S11301C0DEB72A970FB6F894DEBF0FBECDBF9AE014
S11301D0E0E6F0E0DE01119601900D929A95E1F7C8
S11301E0E1E0F0E0EC0FFD1FE60FF11D60810E94DD
S11301F0EF012A960FB6F894DEBF0FBECDBFDF9194
S1130200CF91089590E0FC01E154F109E432F10545
S113021008F067C0E65DFF4F0C941B04413059F4AD
S11302202AB381E090E002C0880F991F6A95E2F733
S1130230822B8ABB08952AB381E090E002C0880F24
S1130240991F6A95E2F7809582238ABB089541300D
S113025059F427B381E090E002C0880F991F6A9592
S1130260E2F7822B87BB089527B381E090E002C0B8
S1130270880F991F6A95E2F78095822387BB0895BA
S1130280413059F424B381E090E002C0880F991FF3
S11302906A95E2F7822B84BB089524B381E090E051
S11302A002C0880F991F6A95E2F78095822384BB68
S11302B00895413059F421B381E090E002C0880FE1
S11302C0991F6A95E2F7822B81BB089521B381E0DF
S11302D090E002C0880F991F6A95E2F78095822307
S11302E081BB089590E0FC01E154F109E432F10589
S11302F008F04CC0E25BFF4F0C941B0429B381E06F
S113030090E0062E02C0880F991F0A94E2F730E0AD
S11303108223932302C0959587956A95E2F7089501
S113032026B381E090E0062E02C0880F991F0A943C
S1130330E2F730E08223932302C0959587956A956E
S1130340E2F7089523B381E090E0062E02C0880FFF
S1130350991F0A94E2F730E08223932302C0959513
S113036087956A95E2F7089520B381E090E0062E20
S113037002C0880F991F0A94E2F730E08223932386
S113038002C0959587956A95E2F7089580E00895EF
S113039090E0FC01E154F109E432F105F8F4EE587F
S11303A0FF4F0C941B04613019F48FEF8ABB08953E
S11303B01ABA0895613019F48FEF87BB089517BAFC
S11303C00895613019F48FEF84BB089514BA089529
S11303D0613019F48FEF81BB089511BA089590E04C
S11303E0FC01E154F109E432F10558F4EA56FF4FF7
S11303F00C941B046BBB089568BB089565BB0895FA
S113040062BB08950E940D0484E40E94D90060E058
S113041082E40E94060461E082E40E940604A69A33
S1130420A79AD09AD19AD29AD39AD49AD59ACDEC43
S113043060E082E40E940A04813009F01EC12FE7C3
S11304408AE196E0215080409040E1F700C000002E
S113045010926A0010926B0010926C0061E082E4CA
S11304600E940A04813099F480916A008F5F883178
S113047019F080936A0002C010926A002FE78AE1A3
S113048096E0215080409040E1F700C00000D89AE7
S1130490D99ADA9ADB9ADC98DD9A60916A006C9FAB
S11304A0812D1124869586958695880F982F990F0E
S11304B0990F890F681B84E40E94DD008FE097E2A6
S11304C00197F1F700C00000D89AD99ADA9ADB9A1A
S11304D0DC9ADD9860916A006C9F612D1124669509
S11304E06695669584E40E94DD008FE097E20197AB
S11304F0F1F700C0000060E082E40E940A0488234F
S113050009F4ACCF9FE72AE186E091502040804077
S1130510E1F700C0000061E082E40E940A04813037
S113052099F480916B008F5F8C3319F080936B008A
S113053002C010926B009FE72AE186E091502040B0
S11305408040E1F700C00000D89AD99ADA98DB9A83
S1130550DC9ADD9A60916B006C9F812D1124869545
S113056086958695880F982F990F990F890F681B88
S113057084E40E94DD008FE097E20197F1F700C068
S11305800000D89AD99ADA9ADB98DC9ADD9A6091BD
S11305906B006C9F612D112466956695669584E4C5
S11305A00E94DD008FE097E20197F1F700C00000A0
S11305B060E082E40E940A04882309F4ACCF9FE738
S11305C02AE186E0915020408040E1F700C000001D
S11305D061E082E40E940A04813059F410926C00B4
S11305E09FE72AE186E0915020408040E1F700C077
S11305F00000D898D99ADA9ADB9ADC9ADD9A60914D
S11306006C006C9F812D1124869586958695880FA4
S1130610982F990F990F890F681B84E40E94DD00BD
S11306208FE097E20197F1F700C00000D89AD998BB
S1130630DA9ADB9ADC9ADD9A60916C006C9F612DEA
S1130640112466956695669584E40E94DD008FE02A
S113065097E20197F1F700C0000060E082E40E9495
S11306600A04882309F4B4CF9FE72AE186E0915075
S113067020408040E1F700C00000D898D99ADA9A67
S1130680DB9ADC9ADD9A60916C006C9F812D1124B9
S1130690869586958695880F982F990F990F890FBF
S11306A0681B84E40E94DD008FE097E20197F1F774
S11306B000C00000D89AD998DA9ADB9ADC9ADD9ABD
S11306C060916C006C9F612D11246695669566950A
S11306D084E40E94DD008FE097E20197F1F700C007
S11306E00000D89AD99ADA98DB9ADC9ADD9A60915C
S11306F06B006C9F812D1124869586958695880FB5
S1130700982F990F990F890F681B84E40E94DD00CC
S11307108FE097E20197F1F700C00000D89AD99AC8
S1130720DA9ADB98DC9ADD9A60916B006C9F612DFC
S1130730112466956695669584E40E94DD008FE039
S113074097E20197F1F700C00000D89AD99ADA9A93
S1130750DB9ADC98DD9A60916A006C9F812D1124EC
S1130760869586958695880F982F990F990F890FEE
S1130770681B84E40E94DD008FE097E20197F1F7A3
S113078000C00000D89AD99ADA9ADB9ADC9ADD98EC
S113079060916A006C9F612D11246695669566953B
S11307A084E40E94DD008FE097E20197F1F700C036
S11307B0000080916C008C3309F03ACE10926C00EA
S11307C080916B008F5F80936B008C3309F030CE87
S11307D010926B0080916A008F5F80936A00883169
S11307E009F026CE10926A0023CE1F920F920FB604
S11307F00F9211248F9380916C008F5F80936C0013
S11308008F910F900FBE0F901F90189540E00E949B
S1130810020108950E947201089582B5886082BD24
S113082085B5816085BD85B5846085BD789489B7BB
S1130830806489BF0895EE0FFF1F0590F491E02DA9
S10908400994F894FFCFB7
S10D08463F065B4F666D7D077F6F70
S9030000FC
